:020000040800F2
:1000000000500020E1180008D5170008DD1700088F
:10001000E5170008ED170008F517000800000000BC
:10002000000000000000000000000000FD170008B4
:100030000918000800000000151800082118000821
:100040002919000829190008291900082919000888
:100050002919000829190008291900082919000878
:100060002919000829190008291900082919000868
:100070002919000829190008291900082919000858
:100080002D18000829190008291900082919000845
:100090002919000829190008291900082919000838
:1000A0002919000829190008291900082919000828
:1000B0002919000829190008291900084118000801
:1000C00055180008291900082919000829190008DD
:1000D00029190008291900082919000829190008F8
:1000E0002919000829190008291900080000000032
:1000F0000000000000000000000000000000000000
:0C01000000000000000000005FF808F1A3
:10010C0010B5054C237833B9044B13B10448AFF345
:10011C0000800123237010BD680000200000000047
:10012C00108A000808B5034B1BB103490348AFF311
:10013C00008008BD000000006C000020108A000840
:10014C00034613F8012B002AFBD1181A013870470B
:10015C0053B94AB9002908BF00281CBF4FF0FF3122
:10016C004FF0FF3000F08CB9ADF1080C6DE904CE06
:10017C0000F006F8DDF804E0DDE9022304B0704776
:10018C002DE9F047089D8E4604468846002B4AD13F
:10019C008A42174662D9B2FA82F64EB1C6F12003F2
:1001AC0001FA06F820FA03F3B74043EA0808B44012
:1001BC004FEA174EB8FBFEF11FFA87FC0EFB1188B5
:1001CC0001FB0CF2230C43EA08439A4209D9FB18B1
:1001DC0001F1FF3080F0EB809A4240F2E880023966
:1001EC003B449A1AB2FBFEF00EFB102200FB0CFCF7
:1001FC00A3B243EA02439C4509D9FB1800F1FF3234
:10020C0080F0D7809C4540F2D4803B44023840EAD1
:10021C0001400021A3EB0C031DB10022F340C5E902
:10022C000032BDE8F0878B4205D90DB1C5E900015C
:10023C0000210846F5E7B3FA83F1002946D173454E
:10024C0002D3824200F20881841A6EEB0302012071
:10025C009046002DE5D0C5E90048E2E7002A00F001
:10026C009180B2FA82F6002E40F0A5808A1A012104
:10027C00030C4FEA174E80B2BCB2B2FBFEFC0EFB75
:10028C001C2243EA024304FB0CF29A4207D9FB18E6
:10029C000CF1FF3802D29A4200F2E380C4469B1A5A
:1002AC00B3FBFEF20EFB123302FB04F440EA0343F1
:1002BC009C4207D9FB1802F1FF3002D29C4200F29B
:1002CC00CD8002461B1B42EA0C40A5E7C1F120067B
:1002DC008B4022FA06F71F432EFA06FA4FEA17490B
:1002EC00BAFBF9F80EFA01FE20FA06F309FB18AA7C
:1002FC001FFA87FC43EA0E0300FA01FE08FB0CF020
:10030C001C0C44EA0A44A04202FA01F20AD93C1934
:10031C0008F1FF3A80F09E80A04240F29B80A8F149
:10032C0002083C44241A98B2B4FBF9F309FB1344B9
:10033C0003FB0CFC40EA0444A44509D93C1903F125
:10034C00FF3080F08580A44540F28280023B3C4423
:10035C0043EA0840A4EB0C04A0FB028C6445434622
:10036C00E14664D361D05DB1BEEB030264EB0904DA
:10037C0004FA06F622FA01F31E43CC40C5E90064E8
:10038C0000214EE7B1FBF2FC010C41EA0E4180B2B8
:10039C0040EA01423B46B1FBF7F138463C46B846D1
:1003AC00BE462026A2EB080241EA0C4165E7014655
:1003BC0017E710462BE7C6F120012EFA01FCB740D7
:1003CC000EFA06FE20FA01F141EA0E014FEA174E31
:1003DC00BCFBFEF8BCB20EFB18CC08FB04F90A0CF3
:1003EC0042EA0C42B04091454FEA104380B23ED9EC
:1003FC00BA1808F1FF3C01D291451FD8A2EB0902B3
:10040C00B2FBFEF909FB04F80EFB192A8AB242EA88
:10041C000A42424529D2BA1809F1FF31C2D24245EB
:10042C00C0D2A9F102013A44BCE7C6459BD2B8EB55
:10043C0002036CEB070C0138E14694E7A7EB0909C2
:10044C004A44B2FBFEF9A8F1020C09FB04F8DBE705
:10045C0003467DE7D04665E70846FAE63B44023A98
:10046C0030E7ACF1020C3B4419E749469AE7A2EBA2
:10047C000902B2FBFEF9C44609FB04F8C4E700BF4D
:10048C00704700BF80B586B000AF786039603868BF
:10049C00FFF756FE0346FB720023FB750023BB756A
:1004AC00FB7D5A1CFA751A467B68134408221A7095
:1004BC00FB7D5A1CFA751A467B68134406221A7087
:1004CC00FB7D5A1CFA751A467B68134401221A707C
:1004DC00FB7D5A1CFA751A467B681344FA7A1A701B
:1004EC0000233B610DE03B693A681A44FB7D591CC3
:1004FC00F97519467B680B4412781A703B69013305
:10050C003B61FB7A3A699A42EDDB0023FB6009E020
:10051C00FB687A6813441A78BB7D5340BB75FB6843
:10052C000133FB60FB7DFA689A42F1DBFB7D5A1CC0
:10053C00FA751A467B681344BA7D1A70FB7D18460F
:10054C001837BD4680BD000080B500AF20220021C9
:10055C00034807F0B5FD034B00221A7000BF80BDA5
:10056C00680100208801002080B483B000AF0346EE
:10057C00FB71104B1B781E2B06D90E4B1F221A70C9
:10058C000D4B0022DA7711E00A4B1B7819460A4A08
:10059C00FB795354074B1B780133DAB2054B1A70B5
:1005AC00044B1B781A46044B002199540C37BD465A
:1005BC0080BC7047880100206801002080B400AF27
:1005CC000A4B1B78002B0CD0084B1B78013BDAB282
:1005DC00064B1A70054B1B781A46054B0021995493
:1005EC0000E000BFBD4680BC704700BF8801002002
:1005FC006801002080B582B002AF0E4B00221A7049
:10060C000D4B00221A70FFF79FFF0C4B1B781946FD
:10061C000B4807F0B3FA0B4B00934FF480730A4A64
:10062C000A490B4807F079F80A4806F035FC00BF78
:10063C00BD4680BD8500002086000020840000207F
:10064C0048010020C0CA8936000801403802002049
:10065C008C000020A400002080B594B000AF00F006
:10066C0013FC034687F84730B04B1A78B04B1B7815
:10067C009A425FD0AE4B1B78052B57D801A252F88B
:10068C0023F000BFA9060008C1060008D106000827
:10069C00E3060008F70600081B070008FFF754FFE5
:1006AC00A44806F079FDA44B1B781946A34807F023
:1006BC0065FA3BE0FFF748FFA14B1B78184607F0A3
:1006CC008DFA33E0FFF740FF9E4B1B7819469E488E
:1006DC0007F0CCFA2AE0FFF737FF07F00DF90022FC
:1006EC0002219A4807F00AFA20E0994B00221A706E
:1006FC00984B00221A70974B1A78964B1B785B011B
:10070C0095490B441946104607F030FC0EE0914B0E
:10071C0000221A708F4B1A788E4B1B785B018E4916
:10072C000B441946104607F021FC00BF804B1A7889
:10073C007E4B1A707E4B1B78052B00F25D8201A25A
:10074C0052F823F069070008FF0700089B0800080F
:10075C0029090008890900081D0B0008754806F0D6
:10076C0080FF0346002B3BD007F14403391D2022A8
:10077C00704806F089FF034687F84F3097F84430ED
:10078C00002B2DD197F84F301F2B02D91F2387F840
:10079C004F3097F84F3050333B44002203F84C2C29
:1007AC0097F84F203B1D1146184600F039FA624B62
:1007BC001B781946614807F0E1F90023BB640CE093
:1007CC0000F088FC502001F00DF900F08FFC502057
:1007DC0001F008F9BB6C0133BB64BB6C012BEFDD82
:1007EC0097F84730232B40F0F881514B01221A70B7
:1007FC0002E297F84730422B0FD1514B1B78002B5C
:10080C0005D04F4B1B78013BDAB24D4B1A704C4B59
:10081C001B78184607F0E2F9EEE197F847304A2BBF
:10082C000FD1474B1B78012B05D8454B1B78013357
:10083C00DAB2434B1A70424B1B78184607F0CEF9CC
:10084C00DAE197F84730232B18D13D4B1B78002B5E
:10085C0003D1374B02221A70C1E1394B1B78012BA3
:10086C0003D1334B04221A70B9E1354B1B78022BA0
:10087C0040F0B5812E4B05221A70B0E197F8473045
:10088C002A2B40F0AE812A4B00221A70B4E197F863
:10089C004730002B00F0A78197F847302A2B03D163
:1008AC00234B01221A70A7E197F84730232B1CD158
:1008BC00254B1B78002B00F098813B1D22491846D4
:1008CC00FFF7E0FD034687F8453097F845203B1DC0
:1008DC001946184806F07BFE154B03221A7001F0DE
:1008EC0077F803461D4A136086E197F84730262BAC
:1008FC0008D1FFF763FE134B1B781946124807F01B
:10090C00B5F979E197F847301846FFF72DFE0D4BF6
:10091C001B7819460C4807F0A9F96DE197F8473098
:10092C002A2B1DD1024B01221A7065E10000002018
:10093C00850000208C00002084000020480100204D
:10094C00860000208801002068010020288A000809
:10095C004501002044010020A40000208800002054
:10096C0001F036F80246A64B1B68D31AB3F5FA6FA2
:10097C0040F23D81A34B00221A703DE1A24B1B7843
:10098C00002B60D197F84730452B15D19F4B1B7826
:10099C00002B05D09D4B1B78013BDAB29B4B1A7098
:1009AC009A4B1A78994B1B785B0199490B44194661
:1009BC00104607F0DBFA1FE197F84730472B15D1AB
:1009CC00924B1B78032B05D8904B1B780133DAB272
:1009DC008E4B1A708D4B1A788C4B1B785B018C49A3
:1009EC000B441946104607F0C1FA05E197F8473059
:1009FC00232B1FD1854B1B785B01854A13441F2287
:100A0C001946844807F064FB824B0022DA77814850
:100A1C00FFF796FB0346DAB27F4B1A707A4B012232
:100A2C001A707A4B1B787C4A12787A49184607F070
:100A3C00D9F9E1E097F847302A2B40F0DA80714B76
:100A4C0001221A70D8E097F84730002B00F0D180C3
:100A5C0097F847302A2B0ED16B4B00221A706B4B38
:100A6C001A786A4B1B785B0169490B44194610468E
:100A7C0007F07CFAC0E097F84730232B2BD1634B5F
:100A8C001B785B01624A13441F226249184607F027
:100A9C001FFB5E4B1B785E4A5B0113441F33002225
:100AAC001A705A4B1A78594B1B785B0158490B44F6
:100ABC001946104606F046F9534B00221A70534B58
:100ACC001A78524B1B785B0151490B44194610465E
:100ADC0007F04CFA90E097F84730262B0AD1FFF735
:100AEC006DFD4A4B1B784C4A12784A49184607F060
:100AFC0079F981E097F847301846FFF735FD434BFD
:100B0C001B78454A12784349184607F06BF973E095
:100B1C0097F84730452B15D13C4B1B78002B05D053
:100B2C003A4B1B78013BDAB2384B1A70374B1A78B8
:100B3C00364B1B785B0136490B441946104607F0BF
:100B4C0015FA59E097F84730472B15D12F4B1B78E6
:100B5C00032B05D82D4B1B780133DAB22B4B1A70B3
:100B6C002A4B1A78294B1B785B0129490B441946EF
:100B7C00104607F0FBF93FE097F84730232B24D1C0
:100B8C00224B1B785B01224A13441F221946214831
:100B9C0007F09EFA1F4B0022DA773B1D1D491846C1
:100BAC00FFF770FC034687F8463097F846203B1D4C
:100BBC0019461A4806F00BFD124B03221A7000F06E
:100BCC0007FF03460E4A136016E097F847302A2BAE
:100BDC0011D10C4B01221A700EE000BF0CE000BFCB
:100BEC000AE000BF08E000BF06E000BF04E000BF61
:100BFC0002E000BF00E000BF5037BD4680BD00BF23
:100C0C0088000020850000204501002044010020C0
:100C1C00A400002068010020880100208C00002026
:100C2C0080B586B000AF78600B46FB70FB78042B68
:100C3C003DD97B681B78082B3BD17B6801331B7833
:100C4C00062B36D17B689B78FB737B68DB78BB7398
:100C5C00BB7B1E2B2FD80023FB7500233B6109E0C7
:100C6C003B697A6813441A78FB7D5340FB753B69EA
:100C7C0001333B61BB7B03333A699A42F0DDBB7BAA
:100C8C0004331A467B6813441B78FA7D9A4214D1BC
:100C9C007B680433BA7B19460A4807F059FABB7BC8
:100CAC00084A0021D154084AFB7B137006E000BFB0
:100CBC0004E000BF02E000BF00E000BF1837BD46F3
:100CCC0080BD00BF480100208400002080B582B0A8
:100CDC0000AF0346FB71012210211B4801F035FDCA
:100CEC0001222021184801F030FD01224021164834
:100CFC0001F02BFD01228021134801F026FDFB7928
:100D0C00012B04D1002210210F4801F01EFDFB79AC
:100D1C00022B04D1002220210B4801F016FDFB7997
:100D2C00032B04D100224021074801F00EFDFB7972
:100D3C00042B04D100228021034801F006FD00BFE2
:100D4C000837BD4680BD00BF0008014080B582B0A9
:100D5C0000AF0023FB7101233B6045E03B68DBB235
:100D6C001846FFF7B3FF012000F03CFE0121244898
:100D7C0001F0D4FC0346002B05D13B68013B214A12
:100D8C00D35CFB7128E002211D4801F0C7FC03462F
:100D9C00002B06D13B68013B1A4A13441B79FB71AB
:100DAC001AE00421164801F0B9FC0346002B06D1C9
:100DBC003B68013B134A13441B7AFB710CE008217E
:100DCC000F4801F0ABFC0346002B05D13B68013BFF
:100DDC000C4A13441B7BFB71FB79002B01D0FB7974
:100DEC0009E03B6801333B603B68042BB6DD002017
:100DFC00FFF76CFF002318460837BD4680BD00BFC7
:100E0C0000080140C88A000880B584B000AF3B469A
:100E1C0000221A605A609A60DA60F0233B6001236A
:100E2C007B600023BB600223FB603B4619461448E1
:100E3C0001F0F0FA0020FFF749FF0F233B6000237D
:100E4C007B600123BB603B4619460D4801F0E2FA7A
:100E5C004FF400533B6001237B600123BB600223F2
:100E6C00FB603B461946074801F0D4FA01224FF4C7
:100E7C000051044801F069FC00BF1037BD4680BD2D
:100E8C00000801400010014080B588B000AFFFF7AA
:100E9C005DFF0346FB72FB7A002B7CD0824B1B78E8
:100EAC00FA7A9A4209D100F093FD02467F4B1B68F7
:100EBC00D31A312B01D80023F1E07B4B1B78FA7A43
:100ECC009A4218D000F084FD0346794A1360764AA2
:100EDC00FB7A137000F07CFD0346744A1360754B6B
:100EEC0000221A7000224FF40051734801F02DFCBF
:100EFC00724B00221A7000F06BFD02466C4B1B68A3
:100F0C00D31A7B607B6840F6C312934224D96B4B97
:100F1C001B78012B3DD800F05BFD0246684B1B682B
:100F2C00D31A632B35D94FF40051634801F025FCDB
:100F3C00642000F057FD4FF400515F4801F01DFC98
:100F4C0000F046FD03465E4A13605C4B1B78013390
:100F5C00DAB25A4B1A701CE07B68B3F57A7F18D35F
:100F6C00564B1B78002B14D14FF40051524801F012
:100F7C0004FC642000F036FD4FF400514E4801F0A3
:100F8C00FCFB00F025FD03464D4A13604B4B012240
:100F9C001A70002383E0444B1B78002B7ED0454B0A
:100FAC001B78002B7AD100F013FD0246404B1B68D6
:100FBC00D31A7B6000233B6002E03B6801333B604B
:100FCC003B68404A9342F8DD0023FB777B6840F690
:100FDC00C312934226D90023BB611FE000237B611F
:100FEC0016E0394A7B699B001A44BB6913441A7892
:100FFC002D4B1B789A4208D1344A7B699B001A44CA
:10100C00BB6913441B78FB7705E07B6901337B617B
:10101C007B69032BE5DDBB690133BB61BB69032B2A
:10102C00DCDD2DE07B68B3F57A7F26D300233B61B2
:10103C001FE00023FB6016E0234AFB689B001A4468
:10104C003B6913441A78184B1B789A4208D1204AF2
:10105C00FB689B001A443B6913441B78FB7705E043
:10106C00FB680133FB60FB68032BE5DD3B69013357
:10107C003B613B69032BDCDD02E00B4B1B78FB7700
:10108C00094B00221A700B4B01221A7001224FF4EB
:10109C000051094801F059FBFB7F00E00023184682
:1010AC002037BD4680BD00BF900100209401002078
:1010BC008C010020910100200010014098010020BB
:1010CC009C0100203F190100C88A0008E88A00082A
:1010DC00D88A000880B400AF034B1B68FA221A644C
:1010EC0000BFBD4680BC70479002002080B400AFAA
:1010FC00034B1B6800221A6400BFBD4680BC7047BE
:10110C009002002080B500AF00F00AFC642000F0D3
:10111C0069FC00F01FF800F05BF900F03BF900F0FF
:10112C005FF800F08BF800F0BFF806F0A5FB06F0B6
:10113C00E3FBFFF769FEFFF75DFA0C21044805F0AD
:10114C00A7F8034B1B6800221A64FFF785FAFCE72B
:10115C009002002080B590B000AF07F11803282250
:10116C000021184606F0ACFF3B1D00221A605A60A5
:10117C009A60DA601A610123BB614FF48033FB6122
:10118C0000233B620123BB6202237B634FF4803359
:10119C00BB634FF4E013FB6307F11803184603F02D
:1011AC003FFE0346002B01D000F0B0F90F237B600B
:1011BC000223BB600023FB604FF480633B61002380
:1011CC007B613B1D0221184604F0ACF80346002B52
:1011DC0001D000F09BF900BF4037BD4680BD000038
:1011EC0080B500AF124B134A1A60114B124A5A6069
:1011FC000F4B00229A600E4B0022DA600C4B4FF41E
:10120C0080421A610A4B00225A61094B00229A61F2
:10121C00074B0022DA61064B00221A62044801F0E7
:10122C00C5FA0346002B01D000F070F900BF80BD59
:10123C00A001002000540040801A060080B500AFC9
:10124C00174B184A1A60164B4FF482725A60144BA3
:10125C0000229A60124B0022DA60114B00221A61B4
:10126C000F4B00225A610E4B4FF400729A610C4BDB
:10127C001822DA610A4B00221A62094B00225A62C8
:10128C00074B00229A62064B0A22DA62044804F0E9
:10129C00C3F90346002B01D000F038F900BF80BD24
:1012AC00380200200038004080B58EB000AF07F146
:1012BC00280300221A605A609A60DA6007F1200352
:1012CC0000221A605A603B1D00221A605A609A6014
:1012DC00DA601A615A619A612D4B4FF080421A60A4
:1012EC002B4B47225A602A4B00229A60284B40F223
:1012FC00F312DA60264B00221A61254B00229A6108
:10130C00234804F01EFF0346002B01D000F0FEF82A
:10131C004FF48053BB6207F1280319461C4805F0B3
:10132C001BF90346002B01D000F0F0F8184804F02C
:10133C0057FF0346002B01D000F0E8F800233B6276
:10134C0000237B6207F120031946114805F07CFC51
:10135C000346002B01D000F0D9F860237B60FA2300
:10136C00BB600023FB6000237B613B1D0C221946F4
:10137C00074805F02FF80346002B01D000F0C6F803
:10138C00034800F0DBF900BF3837BD4680BD00BF15
:10139C009002002080B582B000AF0C4B5B690B4A09
:1013AC0043F001035361094B5B6903F001037B605C
:1013BC007B6800220021102000F00FFC102000F0B0
:1013CC0028FC00BF0837BD4680BD00BF001002409E
:1013DC0080B588B000AF07F1100300221A605A6084
:1013EC009A60DA60454B9B69444A43F01003936161
:1013FC00424B9B6903F01003FB60FB683F4B9B69FE
:10140C003E4A43F0200393613C4B9B6903F020035D
:10141C00BB60BB68394B9B69384A43F0040393614A
:10142C00364B9B6903F004037B607B68334B9B69F1
:10143C00324A43F008039361304B9B6903F0080375
:10144C003B603B6800224FF400512D4801F07DF9C0
:10145C000022F0212B4801F078F901224FF4A06111
:10146C00284801F072F94FF400533B6101237B6172
:10147C000023BB610223FB6107F1100319462048CE
:10148C0000F0C8FF0F233B6100237B610123BB618C
:10149C0007F1100319461B4800F0BCFF4FF49E6384
:1014AC003B6101237B610023BB610223FB6107F1DC
:1014BC0010031946134800F0ADFF4FF480733B61E5
:1014CC0001237B610123BB610223FB6107F1100344
:1014DC0019460C4800F09EFF4FF400733B610A4B19
:1014EC007B610023BB6107F110031946054800F02E
:1014FC0091FF00BF2037BD4680BD00BF00100240E9
:10150C0000100140000801400000111080B400AF31
:10151C0072B600BF00BFFDE780B485B000AF154BBD
:10152C009B69144A43F001039361124B9B6903F0CE
:10153C000103BB60BB680F4BDB690E4A43F0805361
:10154C00D3610C4BDB6903F080537B607B680A4BE7
:10155C005B68FB60FB6823F0E063FB60FB6843F0B7
:10156C008063FB60044AFB68536000BF1437BD46C0
:10157C0080BC7047001002400000014080B588B06C
:10158C0000AF786007F1100300221A605A609A606D
:10159C00DA607B681B68304A934259D12F4B9B69A8
:1015AC002E4A43F0080393612C4B9B6903F008030C
:1015BC00FB60FB68C0233B6112237B610323FB614F
:1015CC0007F110031946264800F024FF234BDB6972
:1015DC00224A43F40013D361204BDB6903F400135C
:1015EC00BB60BB681F4B204A1A601E4B10225A600E
:1015FC001C4B00229A601B4B8022DA60194B002294
:10160C001A61184B00225A61164B00229A61154B35
:10161C000022DA61134800F017FB0346002B01D0BF
:10162C00FFF774FF7B680F4A5A630E4A7B6853625C
:10163C00002200211F2000F0D0FA1F2000F0E9FA50
:10164C0000220021202000F0C8FA202000F0E1FA4E
:10165C0000BF2037BD4680BD005400400010024042
:10166C00000C0140F40100206C00024080B588B0F1
:10167C0000AF786007F1100300221A605A609A607C
:10168C00DA607B681B681C4A934231D11B4BDB69C7
:10169C001A4A43F48043D361184BDB6903F480434B
:1016AC00FB60FB68154B9B69144A43F0080393617C
:1016BC00124B9B6903F00803BB60BB684FF42043DB
:1016CC003B6102237B610323FB6107F11003194685
:1016DC000B4800F09FFE4FF480433B6100237B617D
:1016EC000023BB6107F110031946054800F092FE78
:1016FC0000BF2037BD4680BD0038004000100240BE
:10170C00000C014080B485B000AF78607B681B682A
:10171C00B3F1804F0BD1084BDB69074A43F001034F
:10172C00D361054BDB6903F00103FB60FB6800BF71
:10173C001437BD4680BC70470010024080B588B09D
:10174C0000AF786007F10C0300221A605A609A60AF
:10175C00DA607B681B68B3F1804F2AD1174B9B6909
:10176C00164A43F008039361144B9B6903F008037A
:10177C00BB60BB684FF40063FB6002233B61022338
:10178C00BB6107F10C0319460D4800F043FE0D4BED
:10179C005B68FB61FB6923F44073FB61FB6943F0FD
:1017AC00E063FB61FB6943F40073FB61054AFB6971
:1017BC00536000BF2037BD4680BD00BF0010024003
:1017CC00000C01400000014080B400AF00BFFDE7F9
:1017DC0080B400AF00BFFDE780B400AF00BFFDE7F1
:1017EC0080B400AF00BFFDE780B400AF00BFFDE7E1
:1017FC0080B400AF00BFBD4680BC704780B400AF62
:10180C0000BFBD4680BC704780B400AF00BFBD4672
:10181C0080BC704780B500AF00F0C8F800BF80BD39
:10182C0080B500AF024800F0E1FA00BF80BD00BFF8
:10183C00F401002080B500AF024801F007FB00BFA7
:10184C0080BD00BFA001002080B500AF024801F0B0
:10185C006EFC00BF80BD00BFA001002080B586B02B
:10186C0000AF7860144A154BD31A7B617B693B61DE
:10187C00134B1B68002B02D1114B124A1A60104BF0
:10188C001A687B6813443A699A4207D206F034FC12
:10189C0003460C221A604FF0FF3309E0084B1B681B
:1018AC00FB60074B1A687B681344054A1360FB689E
:1018BC0018461837BD4680BD0050002000040000BB
:1018CC00D80200204804002080B400AF00BFBD4601
:1018DC0080BC7047FFF7F8FF0B480C490C4A0023FB
:1018EC0002E0D458C4500433C4188C42F9D3094ACA
:1018FC00094C002301E013600432A242FBD306F032
:10190C0001FCFFF7FFFB704700000020680000207F
:10191C00D49200086800002048040020FEE7000074
:10192C0080B500AF084B1B68074A43F010031360E7
:10193C00032000F047F90F2000F008F8FFF7ECFD4A
:10194C000023184680BD00BF0020024080B582B045
:10195C0000AF7860124B1A68124B1B7819464FF483
:10196C007A73B3FBF1F3B2FBF3F3184600F05FF9B3
:10197C000346002B01D001230EE07B680F2B0AD805
:10198C00002279684FF0FF3000F027F9064A7B6897
:10199C001360002300E0012318460837BD4680BDC4
:1019AC00040000200C0000200800002080B400AFD0
:1019BC00054B1B781A46054B1B681344034A1360EE
:1019CC0000BFBD4680BC70470C000020DC0200202C
:1019DC0080B400AF024B1B681846BD4680BC7047F4
:1019EC00DC02002080B584B000AF7860FFF7F0FF18
:1019FC00B8607B68FB60FB68B3F1FF3F05D00A4B16
:101A0C001B781A46FB681344FB6000BFFFF7E0FF2E
:101A1C000246BB68D31AFA689A42F7D800BF00BFD7
:101A2C001037BD4680BD00BF0C00002080B485B0CF
:101A3C0000AF78607B6803F00703FB600C4BDB683E
:101A4C00BB60BA684FF6FF031340BB60FB681A0219
:101A5C00BB68134343F0BF6343F40033BB60044AD9
:101A6C00BB68D36000BF1437BD4680BC704700BF55
:101A7C0000ED00E080B400AF044BDB681B0A03F000
:101A8C0007031846BD4680BC704700BF00ED00E060
:101A9C0080B483B000AF0346FB7197F90730002B7D
:101AAC000BDBFB7903F01F02064997F907305B0942
:101ABC00012000FA02F241F8232000BF0C37BD468A
:101ACC0080BC704700E100E080B483B000AF0346F7
:101ADC003960FB7197F90730002B0ADB3B68DAB2EF
:101AEC000C4997F907301201D2B20B4483F800234A
:101AFC000AE03B68DAB20849FB7903F00F03043BB8
:101B0C001201D2B20B441A7600BF0C37BD4680BC12
:101B1C00704700BF00E100E000ED00E080B489B048
:101B2C0000AFF860B9607A60FB6803F00703FB61F3
:101B3C00FB69C3F10703042B28BF0423BB61FB69BA
:101B4C000433062B02D9FB69033B00E000237B61C5
:101B5C004FF0FF32BB6902FA03F3DA43BB681A4059
:101B6C007B699A404FF0FF317B6901FA03F3D9434B
:101B7C007B680B40134318462437BD4680BC704726
:101B8C0080B582B000AF78607B68013BB3F1807F99
:101B9C0001D301230FE00A4A7B68013B53600F21FC
:101BAC004FF0FF30FFF790FF054B00229A60044B7B
:101BBC0007221A60002318460837BD4680BD00BFB7
:101BCC0010E000E080B582B000AF78607868FFF775
:101BDC002DFF00BF0837BD4680BD80B586B000AF75
:101BEC000346B9607A60FB7300237B61FFF742FF09
:101BFC0078617A68B9687869FFF790FF024697F9BF
:101C0C000F3011461846FFF75FFF00BF1837BD466F
:101C1C0080BD80B582B000AF0346FB7197F90730E9
:101C2C001846FFF735FF00BF0837BD4680BD80B5AD
:101C3C0082B000AF78607868FFF7A2FF03461846C1
:101C4C000837BD4680BD000080B485B000AF786019
:101C5C000023FB607B68002B01D1012343E07B68F0
:101C6C001B681A46224B1344224AA2FB03231B096E
:101C7C009A007B681A647B681F4ADA637B680222CD
:101C8C0083F821207B681B681B68FB60FB6823F4CE
:101C9C007F5323F03003FB607B685A687B689B683A
:101CAC001A437B68DB681A437B681B691A437B68A1
:101CBC005B691A437B689B691A437B68DB69134336
:101CCC00FA681343FB607B681B68FA681A607B68D0
:101CDC0000229A637B68012283F821207B68002212
:101CEC0083F82020002318461437BD4680BC70476B
:101CFC00F8FFFDBFCDCCCCCC0000024080B584B049
:101D0C0000AF78600023FB737B6893F82130DBB263
:101D1C00022B05D07B6804229A630123FB7351E0EC
:101D2C007B681B681A687B681B6822F00E021A60BD
:101D3C007B681B681A687B681B6822F001021A60BA
:101D4C007B681B68224A934229D07B681B68214A16
:101D5C00934222D07B681B681F4A93421AD07B683F
:101D6C001B681E4A934212D07B681B681C4A934224
:101D7C000AD07B681B681B4A934202D14FF4801334
:101D8C000EE04FF080730BE04FF4803308E04FF41B
:101D9C00805305E04FF4807302E0102300E0012330
:101DAC00114A53607B68012283F821207B68002252
:101DBC0083F820207B685B6B002B03D07B685B6B0C
:101DCC0078689847FB7B18461037BD4680BD00BF2E
:101DDC00080002401C000240300002404400024057
:101DEC00580002406C0002400000024080B584B0F4
:101DFC0000AF78607B68DB6B1B68FB607B681B68E3
:101E0C001B68BB607B681B6C04229A40FB68134008
:101E1C00002B4FD0BB6803F00403002B4AD07B6827
:101E2C001B681B6803F02003002B07D17B681B6821
:101E3C001A687B681B6822F004021A607B681B68B6
:101E4C00664A934229D07B681B68654A934222D02C
:101E5C007B681B68634A93421AD07B681B68624A92
:101E6C00934212D07B681B68604A93420AD07B680D
:101E7C001B685F4A934202D14FF480030EE04FF08F
:101E8C0080630BE04FF4802308E04FF4804305E0BF
:101E9C004FF4806302E0402300E00423554A536072
:101EAC007B68DB6A002B00F094807B68DB6A7868C7
:101EBC0098478EE07B681B6C02229A40FB681340AB
:101ECC00002B56D0BB6803F00203002B51D07B686B
:101EDC001B681B6803F02003002B0BD17B681B686D
:101EEC001A687B681B6822F00A021A607B68012260
:101EFC0083F821207B681B68384A934229D07B6881
:101F0C001B68374A934222D07B681B68354A934240
:101F1C001AD07B681B68344A934212D07B681B68CA
:101F2C00324A93420AD07B681B68314A934202D1F1
:101F3C004FF400130EE04FF000730BE04FF400333E
:101F4C0008E04FF4005305E04FF4007302E0202347
:101F5C0000E00223274A53607B68002283F820208C
:101F6C007B689B6A002B34D07B689B6A78689847A7
:101F7C002FE07B681B6C08229A40FB681340002BF7
:101F8C0028D0BB6803F00803002B23D07B681B68A8
:101F9C001A687B681B6822F00E021A607B681A6C48
:101FAC007B68DB6B012101FA02F25A607B6801222B
:101FBC009A637B68012283F821207B68002283F8D6
:101FCC0020207B681B6B002B04D07B681B6B786814
:101FDC00984700BF00BF1037BD4680BD08000240C7
:101FEC001C000240300002404400024058000240F5
:101FFC006C0002400000024080B483B000AF7860F7
:10200C007B6893F82130DBB218460C37BD4680BC98
:10201C0070470000F0B587B000AFF860B960C7E951
:10202C0000230123FB750023BB7500237B752F4B0D
:10203C001B7E012B01D1022354E02C4B01221A767A
:10204C004CF2503000F0A8F80346FB75FB7D002BDA
:10205C0044D1FB68012B02D101237B7507E0FB689F
:10206C00022B02D102237B7501E004237B75002334
:10207C00BB752DE0BB7D5A00BB6802EB030CBB7D2E
:10208C001901D7E90023C1F12006A1F1200022FAA1
:10209C0001F403FA06F6344323FA00F0044323FA5E
:1020AC0001F5A3B21946604600F05AF84CF25030D4
:1020BC0000F072F80346FB750D4B1B690C4A23F0BC
:1020CC0001031361FB7D002B07D1BB7D0133BB7575
:1020DC00BA7D7B7D9A42CDD300E000BF034B00223A
:1020EC001A76FB7D18461C37BD46F0BDE002002079
:1020FC000020024080B483B000AF0023FB710D4B75
:10210C001B6903F08003002B0DD00A4B0A4A5A605E
:10211C00084B0A4A5A60074B1B6903F08003002BDB
:10212C0001D00123FB71FB7918460C37BD4680BCEE
:10213C00704700BF0020024023016745AB89EFCDFB
:10214C0080B400AF054B1B69044A43F08003136154
:10215C0000231846BD4680BC704700BF00200240DB
:10216C0080B483B000AF78600B467B80084B0022B4
:10217C00DA61084B1B69074A43F0010313617B6862
:10218C007A881A8000BF0C37BD4680BC704700BFF0
:10219C00E00200200020024080B584B000AF7860DF
:1021AC00FFF716FCF86010E07B68B3F1FF3F0CD032
:1021BC007B68002B07D0FFF70BFC0246FB68D31A99
:1021CC007A689A4201D2032325E0154BDB6803F0B1
:1021DC000103002BE8D1124BDB6803F02003002B2A
:1021EC0002D00F4B2022DA600D4BDB6803F010039A
:1021FC00002B0BD10A4BDB6903F00103002B05D13B
:10220C00074BDB6803F00403002B03D000F00AF843
:10221C00012300E0002318461037BD4680BD00BFE7
:10222C000020024080B483B000AF00237B60234BBE
:10223C00DB6803F01003002B09D0214BDB6943F062
:10224C0002031F4AD3617B6843F010037B601B4B76
:10225C00DB6803F00403002B09D0194BDB6943F056
:10226C000103174AD3617B6843F004037B60134B73
:10227C00DB6903F00103002B0BD0114BDB6943F03E
:10228C0004030F4AD3610D4BDB690C4A23F00103A5
:10229C00D3617B6840F20112934206D1074BDB6994
:1022AC00064A23F00103D36102E0044A7B68D36041
:1022BC0000BF0C37BD4680BC704700BF00200240F9
:1022CC00E002002080B584B000AF78603960012353
:1022DC00FB730023BB602F4B1B7E012B01D1022310
:1022EC0053E02C4B01221A767B681B68022B16D10B
:1022FC004CF25030FFF750FF0346002B41D1012028
:10230C0000F04CF84CF25030FFF746FF0346FB73DD
:10231C00214B1B69204A23F00403136131E04CF27A
:10232C005030FFF739FF0346002B2AD13B684FF0A2
:10233C00FF321A607B689B68BB6019E0B86800F0DC
:10234C0049F84CF25030FFF727FF0346FB73124B52
:10235C001B69114A23F002031361FB7B002B03D092
:10236C003B68BA681A600CE0BB6803F58063BB601D
:10237C007B68DB689A027B689B681344BA689A4254
:10238C00DCD3044B00221A76FB7B18461037BD4673
:10239C0080BD00BFE00200200020024080B483B06A
:1023AC0000AF7860094B0022DA61094B1B69084ABF
:1023BC0043F004031361064B1B69054A43F04003C9
:1023CC00136100BF0C37BD4680BC7047E002002093
:1023DC000020024080B483B000AF78600B4B002229
:1023EC00DA610B4B1B690A4A43F002031361084A7A
:1023FC007B685361064B1B69054A43F0400313612C
:10240C0000BF0C37BD4680BC704700BFE002002007
:10241C000020024080B48BB000AF7860396000239C
:10242C007B6200233B6269E101227B6A02FA03F3BF
:10243C00FB613B681B68FA691340BB61BA69FB69B5
:10244C009A4240F058813B685B689A4A93425ED04E
:10245C00984A934275D8984A934258D0964A9342D8
:10246C006FD8964A934252D0944A934269D8944A70
:10247C0093424CD0924A934263D8924A934246D0AC
:10248C00904A93425DD8122B2AD8122B59D801A20C
:10249C0052F823F01B250008F52400080725000836
:1024AC00492500084F2500084F2500084F25000836
:1024BC004F2500084F2500084F2500084F25000820
:1024CC004F2500084F2500084F2500084F25000810
:1024DC004F2500084F250008FD2400081125000891
:1024EC00794A934213D02CE03B68DB683B6229E0CD
:1024FC003B68DB6804333B6224E03B68DB680833F1
:10250C003B621FE03B68DB680C333B621AE03B68C4
:10251C009B68002B02D104233B6213E03B689B6851
:10252C00012B05D108233B627B68FA691A6109E02B
:10253C0008233B627B68FA695A6103E000233B6223
:10254C0000E000BFBB69FF2B01D87B6801E07B6812
:10255C0004337B61BB69FF2B02D87B6A9B0002E0D2
:10256C007B6A083B9B003B617B691A680F213B69C6
:10257C0001FA03F3DB431A40396A3B6901FA03F3AE
:10258C001A437B691A603B685B6803F08053002B2D
:10259C0000F0B1804D4B9B694C4A43F001039361B1
:1025AC004A4B9B6903F00103BB60BB68484A7B6ADA
:1025BC009B08023352F82330FB607B6A03F0030361
:1025CC009B000F2202FA03F3DB43FA681340FB6013
:1025DC007B68404A934213D07B683F4A93420DD0AC
:1025EC007B683E4A934207D07B683D4A934201D1B7
:1025FC00032306E0042304E0022302E0012300E0AD
:10260C0000237A6A02F0030292009340FA681343A3
:10261C00FB602F497B6A9B080233FA6841F8232040
:10262C003B685B6803F48013002B06D02D4B9A6833
:10263C002C49BB6913438B6006E02A4B9A68BB6933
:10264C00DB43284913408B603B685B6803F4001341
:10265C00002B06D0234BDA682249BB691343CB60AD
:10266C0006E0204BDA68BB69DB431E491340CB60A4
:10267C003B685B6803F40033002B06D0194B5A6897
:10268C001849BB6913434B6006E0164B5A68BB698B
:10269C00DB43144913404B603B685B6803F48033A5
:1026AC00002B21D00F4B1A680E49BB6913430B60EA
:1026BC0021E000BF00003210000031100000221099
:1026CC000000211000001210000011100010024038
:1026DC000000014000080140000C014000100140C6
:1026EC0000140140000401400B4B1A68BB69DB432A
:1026FC00094913400B607B6A01337B623B681A68A3
:10270C007B6A22FA03F3002B7FF48EAE00BF00BF6E
:10271C002C37BD4680BC70470004014080B485B0A6
:10272C0000AF78600B467B807B689A687B8813408F
:10273C00002B02D00123FB7301E00023FB73FB7B16
:10274C0018461437BD4680BC704780B483B000AFC8
:10275C0078600B467B8013467B707B78002B03D014
:10276C007A887B681A6103E07B881A047B681A619B
:10277C0000BF0C37BD4680BC704780B485B000AF3D
:10278C0078600B467B807B68DB68FB607A88FB6833
:10279C0013401A04FB68D9437B880B401A437B68AF
:1027AC001A6100BF1437BD4680BC704780B584B039
:1027BC0000AF78607B68002B01D101232BE17B6893
:1027CC0093F83D30DBB2002B06D17B68002283F8F6
:1027DC003C207868FEF7D2FE7B68242283F83D20EB
:1027EC007B681B681A687B681B6822F001021A6000
:1027FC007B681B681A687B681B6842F400421A608D
:10280C007B681B681A687B681B6822F400421A609C
:10281C0002F0D0FEF8607B685B68814A934207D86F
:10282C00FB68804A934294BF01230023DBB206E08D
:10283C00FB687D4A934294BF01230023DBB2002B3B
:10284C0001D00123E7E0FB68784AA2FB03239B0C31
:10285C00BB607B681B685B6823F03F017B681B686F
:10286C00BA680A435A607B681B681B6A23F03F01F5
:10287C007B685B686A4A934202D8BB68013309E003
:10288C00BB684FF4967202FB03F3694AA2FB032365
:10289C009B0901337A6812680B4313627B681B68CF
:1028AC00DB6923F44F4222F0FF027B685B685C49D2
:1028BC008B4219D8FB68591E7B685B685B00B1FBC7
:1028CC00F3F3591C40F6FC730B40002B0AD0FB6849
:1028DC00591E7B685B685B00B1FBF3F30133C3F3F8
:1028EC000B0351E004234FE07B689B68002B11D154
:1028FC00FB68581E7B6859680B465B000B44B0FBA9
:10290C00F3F30133C3F30B03002B0CBF01230023A0
:10291C00DBB212E0FB68581E7B6859680B469B00C3
:10292C000B4499000B44B0FBF3F30133C3F30B03DB
:10293C00002B0CBF01230023DBB2002B01D00123A1
:10294C0022E07B689B68002B0ED1FB68581E7B68CD
:10295C0059680B465B000B44B0FBF3F30133C3F334
:10296C000B0343F400430FE0FB68581E7B68596867
:10297C000B469B000B4499000B44B0FBF3F3013363
:10298C00C3F30B0343F44043796809681343CB61E9
:10299C007B681B681B6823F0C0017B68DA697B6865
:1029AC001B6A1A437B681B680A431A607B681B68A6
:1029BC009B6823F4034323F0FF037A6811697A6858
:1029CC00D26811437A6812680B4393607B681B686A
:1029DC00DB6823F0FF017B685A697B689B691A43AB
:1029EC007B681B680A43DA607B681B681A687B6823
:1029FC001B6842F001021A607B6800221A647B6833
:102A0C00202283F83D207B6800221A637B68002219
:102A1C0083F83E20002318461037BD4680BD00BF0A
:102A2C00A08601007F841E00FF083D0083DE1B434F
:102A3C00D34D621080B483B000AF78607B681B68A4
:102A4C005B6903F08003802B03D17B681B68002239
:102A5C001A6100BF0C37BD4680BC704780B588B08A
:102A6C0002AFF8607A601A460B467B8113463B81B5
:102A7C00FEF7AEFF7861FB6893F83D30DBB2202B9C
:102A8C0040F0E0807B690093192301227049F868BB
:102A9C0001F0A2FF0346002B01D00223D3E0FB6818
:102AAC0093F83C30012B01D10223CCE0FB680122CE
:102ABC0083F83C20FB681B681B6803F00103012BA7
:102ACC0007D0FB681B681A68FB681B6842F00102A0
:102ADC001A60FB681B681A68FB681B6822F40062AA
:102AEC001A60FB68212283F83D20FB68102283F8D2
:102AFC003E20FB6800221A64FB687A685A62FB6805
:102B0C003A895A85FB685B8D9AB2FB681A85FB681B
:102B1C00504ADA6279897B693A6AF86801F09CFD5F
:102B2C000346002B01D001238DE000233B61FB68A1
:102B3C001B685B693B61FB681B689B693B613B697C
:102B4C0066E07A69396AF86802F060F80346002B8F
:102B5C000DD0FB681B6C042B07D1FB681B681A6833
:102B6C00FB681B6842F400721A6001236BE0FB687F
:102B7C005B6A1A78FB681B681A61FB685B6A5A1CF3
:102B8C00FB685A62FB685B8D9BB2013B9AB2FB6897
:102B9C005A85FB681B8D013B9AB2FB681A85FB6852
:102BAC001B685B6903F00403042B1BD1FB681B8DB2
:102BBC00002B17D0FB685B6A1A78FB681B681A61DC
:102BCC00FB685B6A5A1CFB685A62FB685B8D9BB2A4
:102BDC00013B9AB2FB685A85FB681B8D013B9AB28C
:102BEC00FB681A857A69396AF86802F057F8034667
:102BFC00002B0DD0FB681B6C042B07D1FB681B68EA
:102C0C001A68FB681B6842F400721A6001231AE010
:102C1C00FB681B8D002B94D1FB681B681A68FB6842
:102C2C001B6842F400721A60FB68202283F83D2076
:102C3C00FB68002283F83E20FB68002283F83C20CE
:102C4C00002300E0022318461837BD4680BD00BFA4
:102C5C00020010000000FFFF80B588B002AFF860E2
:102C6C00084611461A4603467B810B463B811346A8
:102C7C00FB80FEF7ADFE7861FB6893F83D30DBB26C
:102C8C00202B40F0D9807B690093192301226D49D8
:102C9C00F86801F0A1FE0346002B01D00223CCE022
:102CAC00FB6893F83C30012B01D10223C5E0FB6893
:102CBC00012283F83C20FB681B681B6803F00103AE
:102CCC00012B07D0FB681B681A68FB681B6842F075
:102CDC0001021A60FB681B681A68FB681B6822F407
:102CEC0000621A60FB68212283F83D20FB684022B9
:102CFC0083F83E20FB6800221A64FB683A6A5A6229
:102D0C00FB68BA8C5A85FB685B8D9AB2FB681A8596
:102D1C00FB684D4ADA62F8883A8979897B690193B4
:102D2C00BB6A00930346F86801F018FD0346002BBC
:102D3C0052D0012381E07A69B96AF86801F066FF24
:102D4C000346002B0DD0FB681B6C042B07D1FB68D2
:102D5C001B681A68FB681B6842F400721A60012336
:102D6C006BE0FB685B6A1A78FB681B681A61FB688E
:102D7C005B6A5A1CFB685A62FB681B8D013B9AB25A
:102D8C00FB681A85FB685B8D9BB2013B9AB2FB68B2
:102D9C005A85FB681B685B6903F00403042B1BD189
:102DAC00FB681B8D002B17D0FB685B6A1A78FB68DD
:102DBC001B681A61FB685B6A5A1CFB685A62FB68E9
:102DCC001B8D013B9AB2FB681A85FB685B8D9BB22D
:102DDC00013B9AB2FB685A85FB681B8D002BAAD16C
:102DEC007A69B96AF86801F059FF0346002B0DD0D7
:102DFC00FB681B6C042B07D1FB681B681A68FB680B
:102E0C001B6842F400721A60012316E0FB681B6811
:102E1C001A68FB681B6842F400721A60FB68202277
:102E2C0083F83D20FB68002283F83E20FB680022DB
:102E3C0083F83C20002300E0022318461837BD46D7
:102E4C0080BD00BF020010000000FFFF80B588B0FD
:102E5C0000AF78600023BB617B681B685B687B619B
:102E6C007B68DB6A3B617B6893F83E30FB737B6865
:102E7C0093F83D30BB73FB7B102B03D0FB7B402BBB
:102E8C0040F0C1807B681B689B69BB617B681B68D9
:102E9C005B69FB61FB6903F00103002B0DD13B69FE
:102EAC00B3F52A0F03D03B69B3F12A4F01D10123AB
:102EBC0000E00023012B00F03281FB6903F00103D9
:102ECC00002B0CD07B695B0A03F00103002B06D0AE
:102EDC00786801F08BFF786800F099FD92E0FB694F
:102EEC00DB0803F00103002B09D07B695B0A03F0BC
:102EFC000103002B03D0786800F00EFE82E0FB6922
:102F0C005B0803F00103002B09D07B695B0A03F01B
:102F1C000103002B03D0786800F027FE72E0BB6938
:102F2C009B0803F00103002B3BD07B681B685B689C
:102F3C0003F40063B3F5006F00F0F380FB69DB0969
:102F4C0003F00103002B0FD07B699B0A03F00103F4
:102F5C00002B09D0FB699B0803F00103002B03D164
:102F6C00786800F0F1F94DE0FB699B0803F0010370
:102F7C00002B00F0D6807B695B0A03F00103002B69
:102F8C0000F0CF80BB7B212B03D1786800F078FA5E
:102F9C00C7E0FB7B402B40F0C480786800F0E6FA79
:102FAC00BFE07B681B685B6803F40063B3F5006FDC
:102FBC0000F0B780FB699B0903F00103002B0FD0D5
:102FCC007B699B0A03F00103002B09D0FB699B086A
:102FDC0003F00103002B03D1786800F05FFB11E0D4
:102FEC00FB699B0803F00103002B00F09A807B69BE
:102FFC005B0A03F00103002B00F09380786800F06B
:10300C0015FC8EE08DE07B681B6C002B04D07B687C
:10301C001B685B69FB6107E07B681B689B69BB6194
:10302C007B681B685B69FB61FB695B0803F0010350
:10303C00002B12D07B695B0A03F00103002B0CD030
:10304C007B681B6C002B03D07B681B689B69BB6186
:10305C00B969786800F0E0FF66E0FB691B0903F0D2
:10306C000103002B09D07B695B0A03F00103002BE1
:10307C0003D0786801F01AF856E0BB7B212B02D004
:10308C00BB7B292B25D1FB69DB0903F00103002B4A
:10309C000FD07B699B0A03F00103002B09D0FB695D
:1030AC009B0803F00103002B03D1786800F0F8FEB5
:1030BC0039E0FB699B0803F00103002B33D07B69DB
:1030CC005B0A03F00103002B2DD0786800F025FF7C
:1030DC0029E0FB699B0903F00103002B0FD07B69EE
:1030EC009B0A03F00103002B09D0FB699B0803F03A
:1030FC000103002B03D1786800F02FFF14E0FB696B
:10310C009B0803F00103002B0ED07B695B0A03F0D4
:10311C000103002B08D0786800F05DFF04E000BFCD
:10312C0002E000BF00E000BF2037BD4680BD80B587
:10313C008AB000AF78607B681B685B693B627B6818
:10314C001B685B68FB6100237B627B6893F83E30F5
:10315C00FB763B6A1B0A03F00103002B16D0FB69BC
:10316C001B0A03F00103002B10D07B6A43F0010310
:10317C007B627B681B686FF480725A617B681B688A
:10318C001A687B681B6842F400421A603B6A5B0A4F
:10319C0003F00103002B0ED0FB691B0A03F00103A3
:1031AC00002B08D07B6A43F002037B627B681B68B0
:1031BC006FF400725A613B6A9B0A03F00103002B07
:1031CC003FD0FB691B0A03F00103002B39D0FB7EB7
:1031DC00BB767B685B8D9BB27B617B6893F83D30E3
:1031EC00FB747B681B6BFB60BB7E202B12D17B6955
:1031FC00002B0FD1FB7C212B08D0FB7C292B05D07D
:10320C00FB7C282B06D1FB68212B03D1786801F0BD
:10321C007DF816E07B681B686FF480625A617B6AEC
:10322C0043F004037B62FB7E102B02D0FB7E402B11
:10323C0007D17B681B681A687B681B6842F40072B4
:10324C001A603B6ADB0A03F00103002B0ED0FB690A
:10325C001B0A03F00103002B08D07B6A43F0080320
:10326C007B627B681B686FF400625A617B6A002B7F
:10327C0008D07B681A6C7B6A1A437B681A6478687E
:10328C0001F0B8F800BF2837BD4680BD80B483B0CC
:10329C0000AF786000BF0C37BD4680BC704780B46F
:1032AC0083B000AF786000BF0C37BD4680BC704760
:1032BC0080B483B000AF786000BF0C37BD4680BCD3
:1032CC00704780B483B000AF786000BF0C37BD4648
:1032DC0080BC704780B483B000AF78600B46FB7045
:1032EC0013463B8000BF0C37BD4680BC704780B492
:1032FC0083B000AF786000BF0C37BD4680BC704710
:10330C0080B483B000AF786000BF0C37BD4680BC82
:10331C00704780B483B000AF786000BF0C37BD46F7
:10332C0080BC704780B483B000AF786000BF0C37AE
:10333C00BD4680BC704780B483B000AF786000BFDE
:10334C000C37BD4680BC704780B584B000AF786048
:10335C007B6893F83D30FB737B6893F83E30BB730E
:10336C007B68DB6ABB607B681B8D002B50D1FB7BC1
:10337C00212B4DD1BB68082B1DD0BB68202B1AD03C
:10338C00BB6813F5803F16D07B681B685A687B6856
:10339C001B6822F4E0625A607B6811221A637B6816
:1033AC00002283F83E207B68202283F83D20786839
:1033BC00FFF76CFF60E07B681B685A687B681B68D2
:1033CC0022F4E0625A607B681B681A687B681B6891
:1033DC0042F400721A607B6800221A637B68202218
:1033EC0083F83D207B6893F83E30DBB2402B07D14D
:1033FC007B68002283F83E207868FFF781FF3BE072
:10340C007B68002283F83E207868FFF73FFF33E0AB
:10341C00FB7B212B05D0BB7B402B2DD1FB7B222BA7
:10342C002AD17B685B8D9BB2002B08D17B681B6813
:10343C005A687B681B6822F480625A601CE07B68C7
:10344C0093F83E30DBB2402B03D1786800F08EF855
:10345C0012E07B685B6A1A787B681B681A617B6870
:10346C005B6A5A1C7B685A627B685B8D9BB2013B22
:10347C009AB27B685A85FFE700BF1037BD4680BD06
:10348C0080B584B000AF78607B68DB6AFB607B68DA
:10349C0093F83D30DBB2212B64D17B685B8D9BB202
:1034AC00002B12D07B685B6A1A787B681B681A61E8
:1034BC007B685B6A5A1C7B685A627B685B8D9BB22B
:1034CC00013B9AB27B685A854CE0FB68082B1DD0F7
:1034DC00FB68202B1AD0FB6813F5803F16D07B6855
:1034EC001B685A687B681B6822F4E0625A607B6830
:1034FC0011221A637B68002283F83E207B6820220D
:10350C0083F83D207868FFF7C1FE2BE07B681B68D1
:10351C005A687B681B6822F4E0625A607B681B68FF
:10352C001A687B681B6842F400721A607B68002280
:10353C001A637B68202283F83D207B6893F83E3029
:10354C00DBB2402B07D17B68002283F83E207868E1
:10355C00FFF7D6FE06E07B68002283F83E207868F1
:10356C00FFF794FE00BF1037BD4680BD80B584B018
:10357C0000AF78607B6893F83D30FB737B681B6D04
:10358C00002B1DD17B68DB6C012B0BD17B689B6CFA
:10359C00DAB27B681B681A617B681B6D9A1C7B68AE
:1035AC001A6577E07B689B6C9BB21B12DAB27B6866
:1035BC001B681A617B681B6D5A1C7B681A6569E075
:1035CC007B681B6D012B0BD17B689B6CDAB27B6823
:1035DC001B681A617B681B6D5A1C7B681A6559E065
:1035EC007B681B6D022B52D1FB7B222B0DD17B6890
:1035FC001B681A687B681B6842F480721A607B68CF
:10360C001B6D5A1C7B681A6544E07B685B8D9BB212
:10361C00002B15D0FB7B212B12D17B685B6A1A78AF
:10362C007B681B681A617B685B6A5A1C7B685A62F0
:10363C007B685B8D9BB2013B9AB27B685A8529E013
:10364C007B685B8D9BB2002B24D1FB7B212B21D182
:10365C007B681B685A687B681B6822F4E0625A60BE
:10366C007B681B681A687B681B6842F400721A60DE
:10367C007B6800221A637B68202283F83D207B68DC
:10368C00002283F83E207868FFF73AFE02E0786863
:10369C00FFF7D0F900BF1037BD4680BD80B584B0B0
:1036AC0000AF78607B6893F83D30DBB2222B40F0A2
:1036BC00B9807B68DB6AFB607B685B8D9BB2BB600F
:1036CC00BB68032B21D97B681B681A697B685B6A12
:1036DC00D2B21A707B685B6A5A1C7B685A627B6830
:1036EC005B8D9BB2013B9AB27B685A857B685B8D84
:1036FC009BB2032B40F096807B681B685A687B68F2
:10370C001B6822F480625A608CE07B68DB6A022BB7
:10371C007FD0BB68012B02D0BB68002B79D17868B5
:10372C0001F004FB0346002B4CD17B681B681A6824
:10373C007B681B6822F480621A607B681B685A687D
:10374C007B681B6822F4E0625A607B681B681A690C
:10375C007B685B6AD2B21A707B685B6A5A1C7B68A6
:10376C005A627B685B8D9BB2013B9AB27B685A852F
:10377C007B68202283F83D207B6893F83E30DBB2D7
:10378C00402B0AD17B68002283F83E207B68002204
:10379C001A637868FFF7BDFD44E07B68002283F86C
:1037AC003E20FB68082B02D0FB68202B03D17B68E2
:1037BC0000221A6302E07B6812221A637868FFF712
:1037CC006EFD2FE07B681B685A687B681B6822F4CF
:1037DC00E0625A607B681B681A697B685B6AD2B2CC
:1037EC001A707B685B6A5A1C7B685A627B685B8DBB
:1037FC009BB2013B9AB27B685A857B68202283F886
:10380C003D207B68002283F83E207868FFF78AFD14
:10381C0008E07B681B685A687B681B6822F480622E
:10382C005A60FFE700BF1037BD4680BD80B584B03D
:10383C0000AF78607B68DB6AFB607B685B8D9BB25A
:10384C00042B1BD17B681B685A687B681B6822F4AD
:10385C0080625A607B681B681A697B685B6AD2B2AB
:10386C001A707B685B6A5A1C7B685A627B685B8D3A
:10387C009BB2013B9AB27B685A85C4E07B685B8D36
:10388C009BB2032B29D17B681B685A687B681B6829
:10389C0022F480625A60FB68042B0AD0FB68022B6E
:1038AC0007D07B681B681A687B681B6822F48062EF
:1038BC001A607B681B681A697B685B6AD2B21A70E3
:1038CC007B685B6A5A1C7B685A627B685B8D9BB217
:1038DC00013B9AB27B685A8595E07B685B8D9BB205
:1038EC00022B7DD1FB68012B02D0FB68102B08D179
:1038FC007B681B681A687B681B6822F480621A60FC
:10390C0016E0FB68042B02D0FB68022B08D17B6805
:10391C001B681A687B681B6842F480621A6007E0B7
:10392C007B681B681A687B681B6842F400721A601B
:10393C007B681B681A697B685B6AD2B21A707B68F9
:10394C005B6A5A1C7B685A627B685B8D9BB2013B3D
:10395C009AB27B685A857B681B681A697B685B6ABC
:10396C00D2B21A707B685B6A5A1C7B685A627B689D
:10397C005B8D9BB2013B9AB27B685A857B681B6856
:10398C005A687B681B6822F440725A607B6820225C
:10399C0083F83D207B6893F83E30DBB2402B0AD194
:1039AC007B68002283F83E207B6800221A637868CB
:1039BC00FFF7AFFC27E07B68002283F83E20FB6812
:1039CC00082B02D0FB68202B03D17B6800221A63E2
:1039DC0002E07B6812221A637868FFF760FC12E041
:1039EC007B681B681A697B685B6AD2B21A707B6849
:1039FC005B6A5A1C7B685A627B685B8D9BB2013B8D
:103A0C009AB27B685A8500BF1037BD4680BD80B422
:103A1C0083B000AF78607B6893F83E30DBB2402B0C
:103A2C0017D17B681B6D002B09D17B685B6CDBB2FB
:103A3C001A467B681B6802F0FE021A6167E07B681D
:103A4C005B6CDBB243F00103DAB27B681B681A6172
:103A5C005DE07B681B69B3F5804F33D17B6893F8CD
:103A6C003D30DBB2212B09D17B685B6CDBB21A4693
:103A7C007B681B6802F0FE021A6108E07B685B6CD5
:103A8C00DBB243F00103DAB27B681B681A617B6816
:103A9C005B6B002B04D07B685B6B9B6A002B08D1A3
:103AAC007B689B6B002B32D07B689B6B9B6A002BDB
:103ABC002DD07B681B685A687B681B6842F40062D7
:103ACC005A6024E07B681B6D002B0ED17B685B6C0D
:103ADC009BB2DB11DBB203F00603DBB263F00F0326
:103AEC00DAB27B681B681A6111E07B681B6D012BD5
:103AFC000DD17B685B6C9BB2DB11DBB203F0060370
:103B0C00DBB263F00E03DAB27B681B681A6100BF8C
:103B1C000C37BD4680BC704780B483B000AF786072
:103B2C007B685B6CDAB27B681B681A617B685B6BC9
:103B3C00002B04D07B685B6B9B6A002B08D17B68E5
:103B4C009B6B002B0CD07B689B6B9B6A002B07D06C
:103B5C007B681B685A687B681B6842F400625A6079
:103B6C0000BF0C37BD4680BC704780B491B000AF2D
:103B7C0078607B6893F83E3087F83F307B68DB6A6F
:103B8C00BB637B681B6B7B637B6893F83D30DBB25C
:103B9C00222B40F074817B681B6D002B0FD197F8A2
:103BAC003F30402B0BD100233B637B681B685B6968
:103BBC003B637B681B689B693B633B6B6BE17B687E
:103BCC001B6D002B1DD17B681B69B3F5404F18D1C1
:103BDC000023FB627B681B685B69FB627B681B686C
:103BEC009B69FB62FB6A7B681B681A687B681B68B5
:103BFC0042F480721A607B681B6D5A1C7B681A65D4
:103C0C0049E17B685B8D9BB2002B13D10023BB6217
:103C1C007B681B685B69BB627B681B689B69BB62CA
:103C2C00BB6A7B681B681A687B681B6842F400726D
:103C3C001A6020E17B685B8D9BB2012B40F08A807F
:103C4C00BB6B13F5803F37D17B681B681A687B68A8
:103C5C001B6822F480621A607B681B685B6803F443
:103C6C000063B3F5006F13D17B681B681A687B681F
:103C7C001B6822F480621A6000237B627B681B68DD
:103C8C005B697B627B681B689B697B627B6AF2E089
:103C9C0000233B627B681B685B693B627B681B682B
:103CAC009B693B623B6A7B681B681A687B681B6874
:103CBC0042F400721A60DEE0BB6B082B2ED0BB6B9B
:103CCC00202B2BD07B6B122B02D1BB6B012B25D164
:103CDC00BB6B042B0ED0BB6B022B0BD0BB6B102B16
:103CEC0008D07B681B681A687B681B6822F48062AA
:103CFC001A6007E07B681B681A687B681B6842F4D3
:103D0C0080621A600023FB617B681B685B69FB6146
:103D1C007B681B689B69FB61FB69ACE07B681B687B
:103D2C001A687B681B6822F480621A600023BB61EE
:103D3C007B681B685B69BB617B681B689B69BB61AB
:103D4C00BB697B681B681A687B681B6842F400724D
:103D5C001A6090E07B685B8D9BB2022B58D1BB6BD9
:103D6C00042B21D0BB6B022B1ED0BB6B102B1BD09A
:103D7C007B681B681A687B681B6842F400621A60D7
:103D8C0000237B617B681B685B697B617B681B68BC
:103D9C009B697B617B697B681B681A687B681B6805
:103DAC0022F480621A6012E07B681B681A687B68D8
:103DBC001B6842F480621A6000233B617B681B68BD
:103DCC005B693B617B681B689B693B613B697B68FA
:103DDC001B685B6803F40063B3F5006F4BD1BB6BDE
:103DEC0013F5803F0BD0BB6B012B08D0BB6B082BA2
:103DFC0005D0BB6B102B02D0BB6B202B3BD17B684F
:103E0C001B685A687B681B6842F480525A6032E027
:103E1C007B681B681A687B681B6842F480621A60B6
:103E2C007B681B685B6803F40063B3F5006F17D104
:103E3C00BB6B13F5803F0BD0BB6B012B08D0BB6B5E
:103E4C00082B05D0BB6B102B02D0BB6B202B07D1E2
:103E5C007B681B685A687B681B6842F480525A6006
:103E6C000023FB607B681B685B69FB607B681B68DD
:103E7C009B69FB60FB687B6800221A650BE00023E2
:103E8C00BB607B681B685B69BB607B681B689B695C
:103E9C00BB60BB68FFE700BF4437BD4680BC7047C2
:103EAC0080B584B000AF78607B6893F83D30FB73CD
:103EBC007B685B8D9BB2002B2BD07B685B6A1A787E
:103ECC007B681B681A617B685B6A5A1C7B685A6248
:103EDC007B685B8D9BB2013B9AB27B685A857B6891
:103EEC005B8D9BB2002B14D1FB7B292B11D17B68F2
:103EFC001B685A687B681B6822F480625A607B6876
:103F0C0021221A637B68282283F83D207868FFF70A
:103F1C00CFF900BF1037BD4680BD80B483B000AF71
:103F2C0078607B685B8D9BB2002B11D07B685B6AE1
:103F3C001A787B681B681A617B685B6A5A1C7B6801
:103F4C005A627B685B8D9BB2013B9AB27B685A8547
:103F5C0000BF0C37BD4680BC704780B584B000AF45
:103F6C0078607B6893F83D30FB737B685B8D9BB20C
:103F7C00002B2CD07B681B681A697B685B6AD2B2F9
:103F8C001A707B685B6A5A1C7B685A627B685B8D13
:103F9C009BB2013B9AB27B685A857B685B8D9BB266
:103FAC00002B14D1FB7B2A2B11D17B681B685A6820
:103FBC007B681B6822F480625A607B6822221A6339
:103FCC007B68282283F83D207868FFF77AF900BFD8
:103FDC001037BD4680BD80B483B000AF78607B687D
:103FEC005B8D9BB2002B12D07B681B681A697B68B7
:103FFC005B6AD2B21A707B685B6A5A1C7B685A6225
:10400C007B685B8D9BB2013B9AB27B685A8500BF83
:10401C000C37BD4680BC704780B584B000AF78606B
:10402C0039600023FB737B6893F83D30DBB203F0FF
:10403C002803282B27D17B681B685A687B681B6870
:10404C0022F480625A603B689B0803F00103002B4A
:10405C0001D10123FB733B68DB0903F00103002B47
:10406C0003D17B68DB68BB8102E07B689B69BB8109
:10407C007B68002283F83C20BA89FB7B1946786860
:10408C00FFF728F90EE00023BB607B681B685B69B7
:10409C00BB607B681B689B69BB60BB687B6800224C
:1040AC0083F83C2000BF1037BD4680BD80B584B07E
:1040BC0000AF78607B6893F83D30FB737B681B68BE
:1040CC005A687B681B6822F4E0625A600023BB606C
:1040DC007B681B685B69BB607B681B681A687B68C4
:1040EC001B6842F001021A60BB687B681B681A6887
:1040FC007B681B6822F480621A607B681B685B68B3
:10410C0003F40063B3F5006F72D1FB7B222B02D05A
:10411C00FB7B2A2B35D17B689B6B1B685B689AB247
:10412C007B685A857B685B8D9BB2002B05D07B68C6
:10413C001B6C43F004027B681A647B681B685A682A
:10414C007B681B6822F400625A607B689B6B184684
:10415C00FDF752FF0346012B49D07B689B6B694AE4
:10416C005A637B689B6B1846FDF7C8FD0346002B12
:10417C003DD07B689B6B5B6B7A68926B1046984763
:10418C0035E07B685B6B1B685B689AB27B685A8511
:10419C007B685B8D9BB2002B05D07B681B6C43F05E
:1041AC0004027B681A647B681B685A687B681B680E
:1041BC0022F400625A607B685B6B1846FDF71CFFAB
:1041CC000346012B14D07B685B6B4E4A5A637B68A9
:1041DC005B6B1846FDF792FD0346002B08D07B68FD
:1041EC005B6B5B6B7A68526B1046984700E000BFC4
:1041FC007B685B8D9BB2002B3ED07B681B685B6938
:10420C0003F00403042B12D17B681B681A697B68CA
:10421C005B6AD2B21A707B685B6A5A1C7B685A6202
:10422C007B685B8D9BB2013B9AB27B685A857B683D
:10423C001B685B6903F04003402B12D17B681B6841
:10424C001A697B685B6AD2B21A707B685B6A5A1C0B
:10425C007B685A627B685B8D9BB2013B9AB27B6830
:10426C005A857B685B8D9BB2002B05D07B681B6CE1
:10427C0043F004027B681A647B681B6C002B03D030
:10428C00786800F0B7F839E0FB7B2A2B09D17B6802
:10429C0000221A637B68282283F83D207868FFF798
:1042AC0010F87B6893F83D30DBB2282B11D17B687A
:1042BC00154ADA627B6800221A637B68202283F835
:1042CC003D207B68002283F83E207868FFF70FF8CA
:1042DC0014E07B681B6B222B02D0FB7B222B0DD1B5
:1042EC007B6800221A637B68202283F83D207B6860
:1042FC00002283F83E207868FEF7E3FF00BF1037FA
:10430C00BD4680BD954800080000FFFF80B584B015
:10431C0000AF78607B6893F83D30FB737B68DB6A99
:10432C00BB60BB68082B02D0BB68202B29D1FB7B60
:10433C00282B26D17B682E4ADA627B681B685A6868
:10434C007B681B6822F4E0625A607B681B686FF420
:10435C0080625A617B681B681A687B681B6822F450
:10436C0080621A607B6800221A637B68202283F8C3
:10437C003D207B68002283F83E207868FEF7B7FF6B
:10438C0031E0FB7B212B29D17B68194ADA627B68EF
:10439C0021221A637B68202283F83D207B6800224F
:1043AC0083F83E207B681B685A687B681B6822F484
:1043BC00E0625A607B681B686FF480625A617B68AC
:1043CC001B681A687B681B6822F480621A60786824
:1043DC00FEF730FB7868FEF76BFF04E07B681B6828
:1043EC006FF480625A6100BF1037BD4680BD00BFBC
:1043FC000000FFFF80B584B000AF78607B6893F855
:10440C003D30FB737B6893F83E30BB73BB7B102B4A
:10441C0002D0BB7B402B0AD1FB7B222B07D17B68C4
:10442C001B681A687B681B6822F400621A60FB7BAD
:10443C0003F02803282B07D17B6800221A637B68C2
:10444C00282283F83D2015E07B681B685B6803F429
:10445C000063B3F5006F0AD0FB7B602B07D07B6841
:10446C00202283F83D207B68002283F83E207B6865
:10447C0000221A637B681B685B6803F40063B3F566
:10448C00006F62D17B681B685A687B681B6822F4DA
:10449C0000625A607B685B6B93F82130DBB2012BB6
:1044AC0020D07B685B6B6A4A5A637B685B6B1846EF
:1044BC00FDF724FC0346002B00F089807B681B6809
:1044CC001A687B681B6822F001021A607B68202244
:1044DC0083F83D207B685B6B5B6B7A68526B104694
:1044EC00984774E07B689B6B594A5A637B689B6B5B
:1044FC001846FDF703FC0346002B68D07B681B684D
:10450C005B6903F04003402B0BD17B681B681A6975
:10451C007B685B6AD2B21A707B685B6A5A1C7B68D8
:10452C005A627B681B681A687B681B6822F0010260
:10453C001A607B68202283F83D207B689B6B5B6B49
:10454C007A68926B1046984741E07B6893F83D304F
:10455C00DBB2602B25D17B68202283F83D207B6861
:10456C0000221A647B681B685B6903F04003402BD4
:10457C000BD17B681B681A697B685B6AD2B21A70B4
:10458C007B685B6A5A1C7B685A627B681B681A687A
:10459C007B681B6822F001021A607868FEF7CBFE7C
:1045AC0015E07B681B685B6903F04003402B0BD163
:1045BC007B681B681A697B685B6AD2B21A707B686D
:1045CC005B6A5A1C7B685A627868FEF7ABFE7B68A4
:1045DC001B6CBB60BB6803F00103002B0ED1BB68E6
:1045EC0003F00203002B09D1BB6803F00403002B7A
:1045FC0004D1BB6803F00803002B07D07B681B6851
:10460C005A687B681B6822F4E0625A607B6893F8F6
:10461C003D30FB737B681B6C03F00403042B13D13C
:10462C00FB7B282B10D17B680A4ADA627B6800225C
:10463C001A637B68202283F83D207B68002283F874
:10464C003E207868FEF753FE00BF1037BD4680BD94
:10465C00954800080000FFFF80B588B002AFF860F5
:10466C007A603B600B467B81FB68DB6A7B617B6914
:10467C00082B06D07B69012B03D07B6913F5803F97
:10468C0008D1FB681B681A68FB681B6842F48072CF
:10469C001A600BE0FB681B6B122B07D1FB681B68C5
:1046AC001A68FB681B6842F480721A603B680093BE
:1046BC007B6800224FF00111F86800F08DF9034679
:1046CC00002B0DD0FB681B681B6803F48073B3F5DB
:1046DC00807F03D1FB684FF400721A64032335E02A
:1046EC00FB681B69B3F5804F08D17B89DBB21A4696
:1046FC00FB681B6802F0FE021A611BE07B89DB1170
:10470C00DBB203F00603DBB263F00F03DAB2FB6833
:10471C001B681A613B687A680E49F86800F0D6F994
:10472C000346002B01D0012310E07B89DAB2FB6831
:10473C001B681A613B687A680749F86800F0C6F98B
:10474C000346002B01D0012300E000231846183744
:10475C00BD4680BD080001000200010080B588B094
:10476C0002AFF860084611461A4603467B810B4699
:10477C003B811346FB80FB681B681A68FB681B684F
:10478C0042F480721A607B6A00933B6A00224FF0FD
:10479C000111F86800F020F90346002B0DD0FB68DE
:1047AC001B681B6803F48073B3F5807F03D1FB682F
:1047BC004FF400721A6403235FE07B89DBB21A4664
:1047CC00FB681B6802F0FE021A617B6A3A6A2D498B
:1047DC00F86800F07BF90346002B01D001234CE074
:1047EC0000237B61FB681B685B697B61FB681B6852
:1047FC009B697B617B697A6A396AF86800F006FA12
:10480C000346002B0DD0FB681B6C042B07D1FB68F7
:10481C001B681A68FB681B6842F400721A6001235B
:10482C002BE0FB88012B05D13B89DAB2FB681B68B6
:10483C001A6121E03B891B0A9BB2DAB2FB681B6848
:10484C001A617A6A396AF86800F0E0F90346002BBD
:10485C000DD0FB681B6C042B07D1FB681B681A6816
:10486C00FB681B6842F400721A60012305E03B8967
:10487C00DAB2FB681B681A61002318461837BD466C
:10488C0080BD00BF0200010080B586B000AF78602B
:10489C000023FB607B685B6A7B617B6993F83D302E
:1048AC00FB744B4B1B68DB084A4AA2FB03231A0A16
:1048BC0013469B001344DA00D31AFB60FB68002BF1
:1048CC0006D17B691B6C43F020027B691A640AE0F9
:1048DC00FB68013BFB607B691B681B6803F400737E
:1048EC00B3F5007FEAD07B695B6B002B03D07B694F
:1048FC005B6B00229A627B699B6B002B03D07B69FC
:10490C009B6B00229A627B691B681A687B691B6827
:10491C0022F480621A607B6900225A857B695B6B8A
:10492C00002B03D07B695B6B00225A637B699B6B0A
:10493C00002B03D07B699B6B00225A637B691B683D
:10494C001A687B691B6822F001021A607B6993F874
:10495C003D30DBB2602B0ED17B69202283F83D20E9
:10496C007B69002283F83E207B6900221A647869F7
:10497C00FEF7E1FC27E0FB7C03F02803282B17D182
:10498C007B691B681A687B691B6842F001021A601C
:10499C007B691B681A687B691B6842F480621A6029
:1049AC007B6900221A637B69282283F83D2007E08B
:1049BC007B69202283F83D207B69002283F83E200E
:1049CC007869FEF7AFFC00BF1837BD4680BD00BF4D
:1049DC000400002089B5F81480B584B000AFF860ED
:1049EC00B9603B601346FB7148E03B68B3F1FF3F95
:1049FC0044D0FCF7EDFF0246BB69D31A3A689A42E1
:104A0C0002D33B68002B39D1BB681B0CDBB2012BEA
:104A1C000DD1FB681B685B69DA43BB6813409BB222
:104A2C00002B0CBF01230023DBB21A460CE0FB6801
:104A3C001B689B69DA43BB6813409BB2002B0CBF0D
:104A4C0001230023DBB21A46FB799A4216D1FB688C
:104A5C0000221A63FB68202283F83D20FB680022A9
:104A6C0083F83E20FB681B6C43F02002FB681A6441
:104A7C00FB68002283F83C20012323E0BB681B0C5D
:104A8C00DBB2012B0DD1FB681B685B69DA43BB6899
:104A9C0013409BB2002B0CBF01230023DBB21A4640
:104AAC000CE0FB681B689B69DA43BB6813409BB244
:104ABC00002B0CBF01230023DBB21A46FB799A4270
:104ACC0093D0002318461037BD4680BD80B584B006
:104ADC0000AFF860B9607A603B6071E0FB681B68FE
:104AEC005B6903F48063B3F5806F23D1FB681B68AB
:104AFC001A68FB681B6842F400721A60FB681B683A
:104B0C006FF480625A61FB6800221A63FB682022F2
:104B1C0083F83D20FB68002283F83E20FB681B6C69
:104B2C0043F00402FB681A64FB68002283F83C2003
:104B3C00012367E07B68B3F1FF3F41D0FCF748FFEE
:104B4C0002463B68D31A7A689A4202D37B68002BE0
:104B5C0036D1BB681B0CDBB2012B0CD1FB681B687C
:104B6C005B69DA43BB6813409BB2002B14BF012373
:104B7C000023DBB20BE0FB681B689B69DA43BB6864
:104B8C0013409BB2002B14BF01230023DBB2002B7C
:104B9C0016D0FB6800221A63FB68202283F83D20A4
:104BAC00FB68002283F83E20FB681B6C43F020025C
:104BBC00FB681A64FB68002283F83C20012321E087
:104BCC00BB681B0CDBB2012B0CD1FB681B685B694F
:104BDC00DA43BB6813409BB2002B14BF01230023A4
:104BEC00DBB20BE0FB681B689B69DA43BB681340C4
:104BFC009BB2002B14BF01230023DBB2002B7FF4EC
:104C0C006DAF002318461037BD4680BD80B584B00B
:104C1C0000AFF860B9607A6034E0F86800F0B8F87A
:104C2C000346002B01D0012334E0BB68B3F1FF3FF6
:104C3C0028D0FCF7CDFE02467B68D31ABA689A429C
:104C4C0002D3BB68002B1DD1FB681B685B6903F0AA
:104C5C008003802B16D0FB6800221A63FB6820228D
:104C6C0083F83D20FB68002283F83E20FB681B6C18
:104C7C0043F02002FB681A64FB68002283F83C2096
:104C8C00012307E0FB681B685B6903F08003802B42
:104C9C00C3D1002318461037BD4680BD80B584B003
:104CAC0000AFF860B9607A6034E0F86800F070F832
:104CBC000346002B01D0012334E0BB68B3F1FF3F66
:104CCC0028D0FCF785FE02467B68D31ABA689A4254
:104CDC0002D3BB68002B1DD1FB681B685B6903F01A
:104CEC000403042B16D0FB6800221A63FB682022F5
:104CFC0083F83D20FB68002283F83E20FB681B6C88
:104D0C0043F02002FB681A64FB68002283F83C2005
:104D1C00012307E0FB681B685B6903F00403042BA9
:104D2C00C3D1002318461037BD4680BD80B485B072
:104D3C0000AF78600023FB60134B1B68DB08134A41
:104D4C00A2FB03231A0A13469B001344FB60FB6867
:104D5C00013BFB60FB68002B07D17B681B6C43F0AD
:104D6C0020027B681A64012308E07B681B681B68BF
:104D7C0003F40073B3F5007FE9D000231846143711
:104D8C00BD4680BC704700BF0400002089B5F814F4
:104D9C0080B483B000AF78607B681B685B6903F4F8
:104DAC008063B3F5806F1BD17B681B686FF48062E6
:104DBC005A617B6800221A637B68202283F83D20AD
:104DCC007B68002283F83E207B681B6C43F0040256
:104DDC007B681A647B68002283F83C20012300E086
:104DEC00002318460C37BD4680BC704780B483B096
:104DFC0000AF78607B68DB6AB3F52A0F03D17B6860
:104E0C000122DA6207E07B68DB6AB3F12A4F02D138
:104E1C007B680822DA6200BF0C37BD4680BC704745
:104E2C0080B586B000AF78607B68002B01D1012380
:104E3C0072E27B681B6803F00103002B00F0878093
:104E4C00924B5B6803F00C03042B0CD08F4B5B680C
:104E5C0003F00C03082B12D18C4B5B6803F48033EA
:104E6C00B3F5803F0BD1894B1B6803F40033002B47
:104E7C006CD07B685B68002B68D101234CE27B68AB
:104E8C005B68B3F5803F06D1804B1B687F4A43F4C7
:104E9C00803313602EE07B685B68002B0CD17B4B5E
:104EAC001B687A4A23F480331360784B1B68774A6B
:104EBC0023F4802313601DE07B685B68B3F5A02F9F
:104ECC000CD1724B1B68714A43F4802313606F4BF7
:104EDC001B686E4A43F4803313600BE06B4B1B680A
:104EEC006A4A23F480331360684B1B68674A23F4C7
:104EFC00802313607B685B68002B13D0FCF768FD84
:104F0C00386108E0FCF764FD02463B69D31A642B58
:104F1C0001D9032300E25D4B1B6803F40033002B23
:104F2C00F0D014E0FCF754FD386108E0FCF750FDBC
:104F3C0002463B69D31A642B01D90323ECE1534B92
:104F4C001B6803F40033002BF0D100E000BF7B683A
:104F5C001B6803F00203002B63D04C4B5B6803F01F
:104F6C000C03002B0BD0494B5B6803F00C03082B94
:104F7C001CD1464B5B6803F48033002B16D1434B9A
:104F8C001B6803F00203002B05D07B681B69012B07
:104F9C0001D00123C0E13D4B1B6823F0F8027B6874
:104FAC005B69DB00394913430B603AE07B681B6992
:104FBC00002B20D0364B01221A60FCF709FD38611A
:104FCC0008E0FCF705FD02463B69D31A022B01D918
:104FDC000323A1E12D4B1B6803F00203002BF0D03F
:104FEC002A4B1B6823F0F8027B685B69DB002749BE
:104FFC0013430B6015E0264B00221A60FCF7E8FC0B
:10500C00386108E0FCF7E4FC02463B69D31A022B3A
:10501C0001D9032380E11D4B1B6803F00203002B15
:10502C00F0D17B681B6803F00803002B3AD07B6837
:10503C009B69002B19D0174B01221A60FCF7C8FC96
:10504C00386108E0FCF7C4FC02463B69D31A022B1A
:10505C0001D9032360E10D4B5B6A03F00203002BC3
:10506C00F0D0012000F0BAFA1CE00A4B00221A60C2
:10507C00FCF7AEFC38610FE0FCF7AAFC02463B697A
:10508C00D31A022B08D9032346E100BF00100240BB
:10509C000000424280044242924B5B6A03F00203DE
:1050AC00002BE9D17B681B6803F00403002B00F094
:1050BC00A6800023FB758B4BDB6903F08053002B20
:1050CC000DD1884BDB69874A43F08053D361854B04
:1050DC00DB6903F08053BB60BB680123FB75824B1B
:1050EC001B6803F48073002B18D17F4B1B687E4A1E
:1050FC0043F480731360FCF76BFC386108E0FCF739
:10510C0067FC02463B69D31A642B01D9032303E1E4
:10511C00754B1B6803F48073002BF0D07B68DB6845
:10512C00012B06D16F4B1B6A6E4A43F001031362CD
:10513C002DE07B68DB68002B0CD16A4B1B6A694A3B
:10514C0023F001031362674B1B6A664A23F00403C6
:10515C0013621CE07B68DB68052B0CD1614B1B6A6E
:10516C00604A43F0040313625E4B1B6A5D4A43F0D2
:10517C00010313620BE05B4B1B6A5A4A23F00103D9
:10518C001362584B1B6A574A23F0040313627B6863
:10519C00DB68002B15D0FCF71BFC38610AE0FCF730
:1051AC0017FC02463B69D31A41F28832934201D96B
:1051BC000323B1E04B4B1B6A03F00203002BEED030
:1051CC0014E0FCF705FC38610AE0FCF701FC024630
:1051DC003B69D31A41F28832934201D903239BE0F5
:1051EC00404B1B6A03F00203002BEED1FB7D012B1D
:1051FC0005D13C4BDB693B4A23F08053D3617B6880
:10520C00DB69002B00F08780364B5B6803F00C03E6
:10521C00082B61D07B68DB69022B46D1334B002213
:10522C001A60FCF7D5FB386108E0FCF7D1FB0246AD
:10523C003B69D31A022B01D903236DE0294B1B6860
:10524C0003F00073002BF0D17B681B6AB3F5803F31
:10525C0008D1244B5B6823F400327B689B6821499E
:10526C0013434B601F4B5B6823F474127B68196A01
:10527C007B685B6A0B431B4913434B601B4B01223E
:10528C001A60FCF7A5FB386108E0FCF7A1FB0246AD
:10529C003B69D31A022B01D903233DE0114B1B6848
:1052AC0003F00073002BF0D035E0104B00221A6095
:1052BC00FCF78EFB386108E0FCF78AFB02463B6981
:1052CC00D31A022B01D9032326E0064B1B6803F0EB
:1052DC000073002BF0D11EE07B68DB69012B07D13A
:1052EC00012319E0001002400070004060004242AF
:1052FC000B4B5B68FB60FB6803F480327B681B6ABA
:10530C009A4206D1FB6803F470127B685B6A9A427E
:10531C0001D0012300E0002318461837BD4680BD9C
:10532C000010024080B584B000AF786039607B68B3
:10533C00002B01D10123D0E06A4B1B6803F007035B
:10534C003A689A4210D9674B1B6823F007026549EB
:10535C003B6813430B60634B1B6803F007033A680D
:10536C009A4201D00123B8E07B681B6803F002036A
:10537C00002B20D07B681B6803F00403002B05D0A6
:10538C00594B5B68584A43F4E06353607B681B6875
:10539C0003F00803002B05D0534B5B68524A43F4CF
:1053AC0060535360504B5B6823F0F0027B689B6842
:1053BC004D4913434B607B681B6803F00103002BC2
:1053CC0040D07B685B68012B07D1474B1B6803F40B
:1053DC000033002B15D101237FE07B685B68022B27
:1053EC0007D1414B1B6803F00073002B09D101233B
:1053FC0073E03D4B1B6803F00203002B01D101232A
:10540C006BE0394B5B6823F003027B685B683649C1
:10541C0013434B60FCF7DCFAF8600AE0FCF7D8FAAF
:10542C000246FB68D31A41F28832934201D9032316
:10543C0053E02D4B5B6803F00C027B685B689B00B0
:10544C009A42EBD1274B1B6803F007033A689A4248
:10545C0010D2244B1B6823F0070222493B681343EC
:10546C000B60204B1B6803F007033A689A4201D08B
:10547C00012332E07B681B6803F00403002B08D087
:10548C00194B5B6823F4E0627B68DB6816491343B5
:10549C004B607B681B6803F00803002B09D0124B90
:1054AC005B6823F460527B681B69DB000E49134375
:1054BC004B6000F021F802460B4B5B681B0903F0B4
:1054CC000F030A49CB5C22FA03F3094A1360094B18
:1054DC001B681846FCF73AFA002318461037BD46ED
:1054EC0080BD00BF0020024000100240F88A000876
:1054FC00040000200800002080B487B000AF002317
:10550C00FB600023BB6000237B6100237B600023D6
:10551C003B611E4B5B68FB60FB6803F00C03042BC8
:10552C0002D0082B03D027E0194B3B6127E0FB6826
:10553C009B0C03F00F03174AD35C7B60FB6803F4EE
:10554C008033002B10D0114B5B685B0C03F0010314
:10555C00114AD35CBB607B680D4A03FB02F2BB684B
:10556C00B2FBF3F37B6104E07B680C4A02FB03F3B0
:10557C007B617B693B6102E0054B3B6100BF3B6992
:10558C0018461C37BD4680BC704700BF0010024057
:10559C0000127A00108B0008208B000800093D00D7
:1055AC0080B400AF024B1B681846BD4680BC7047E8
:1055BC000400002080B500AFFFF7F2FF0246054B58
:1055CC005B681B0A03F007030349CB5C22FA03F365
:1055DC00184680BD00100240088B000880B485B0CE
:1055EC0000AF78600A4B1B680A4AA2FB03235B0AD4
:1055FC007A6802FB03F3FB6000BFFB685A1EFA607B
:10560C00002BF9D100BF00BF1437BD4680BC7047DA
:10561C0004000020D34D621080B582B000AF7860DA
:10562C007B68002B01D1012376E07B685B6A002B41
:10563C0008D17B685B68B3F5827F09D07B68002258
:10564C00DA6105E07B6800221A617B6800225A61EE
:10565C007B6800229A627B6893F85130DBB2002B96
:10566C0006D17B68002283F850207868FBF7FEFF98
:10567C007B68022283F851207B681B681A687B6860
:10568C001B6822F040021A607B685B6803F482722C
:10569C007B689B6803F404431A437B68DB6803F460
:1056AC0000631A437B681B6903F002031A437B688F
:1056BC005B6903F001031A437B689B6903F4007375
:1056CC001A437B68DB6903F038031A437B681B6A57
:1056DC0003F0800342EA03017B689B6A03F40052E7
:1056EC007B681B680A431A607B689B691A0C7B6891
:1056FC001B6802F004025A607B681B68DA697B68DD
:10570C001B6822F40062DA617B6800225A657B68B0
:10571C00012283F85120002318460837BD4680BD6E
:10572C0080B588B000AFF860B9603B601346FB8071
:10573C00FCF74EF9F861FB887B83FB6893F85130DA
:10574C00DBB2012B01D002232AE1BB68002B02D073
:10575C00FB88002B01D1012322E1FB6893F8503028
:10576C00012B01D102231BE1FB68012283F850209D
:10577C00FB68032283F85120FB6800225A65FB6802
:10578C00BA681A63FB68FA889A86FB68FA88DA8624
:10579C00FB6800229A63FB6800229A87FB68002250
:1057AC00DA87FB6800225A64FB6800221A64FB68E3
:1057BC009B68B3F5004F0FD1FB681B681A68FB6838
:1057CC001B6822F040021A60FB681B681A68FB68B1
:1057DC001B6842F480421A60FB681B681B6803F06C
:1057EC004003402B07D0FB681B681A68FB681B68DA
:1057FC0042F040021A60FB68DB68B3F5006F52D1CF
:10580C00FB685B68002B02D07B8B012B45D1FB68BE
:10581C001B6B1A88FB681B68DA60FB681B6B9A1C95
:10582C00FB681A63FB68DB8E9BB2013B9AB2FB6888
:10583C00DA8632E0FB681B689B6803F00203022BDC
:10584C0012D1FB681B6B1A88FB681B68DA60FB685B
:10585C001B6B9A1CFB681A63FB68DB8E9BB2013BCB
:10586C009AB2FB68DA8618E0FCF7B2F80246FB69DC
:10587C00D31A3A689A4203D83B68B3F1FF3F02D17E
:10588C003B68002B09D1FB68012283F85120FB688F
:10589C00002283F85020032382E0FB68DB8E9BB24E
:1058AC00002BC7D153E0FB685B68002B02D07B8BCD
:1058BC00012B47D1FB681A6BFB681B680C33127801
:1058CC001A70FB681B6B5A1CFB681A63FB68DB8E37
:1058DC009BB2013B9AB2FB68DA8633E0FB681B682B
:1058EC009B6803F00203022B13D1FB681A6BFB6855
:1058FC001B680C3312781A70FB681B6B5A1CFB6804
:10590C001A63FB68DB8E9BB2013B9AB2FB68DA86AA
:10591C0018E0FCF75DF80246FB69D31A3A689A4224
:10592C0003D83B68B3F1FF3F02D13B68002B09D190
:10593C00FB68012283F85120FB68002283F8502079
:10594C0003232DE0FB68DB8E9BB2002BC6D1FA69DA
:10595C003968F86800F0C4FB0346002B02D0FB68E2
:10596C0020225A65FB689B68002B0AD100237B61BF
:10597C00FB681B68DB687B61FB681B689B687B6151
:10598C007B69FB68012283F85120FB68002283F8B5
:10599C005020FB685B6D002B01D0012300E000233D
:1059AC0018462037BD4680BD80B588B002AFF86080
:1059BC00B9603B601346FB80FB6893F85130DBB257
:1059CC00012B01D0022304E1FB685B68B3F5827FF5
:1059DC0012D1FB689B68002B0ED1FB68042283F864
:1059EC005120FA883B6800931346BA68B968F86886
:1059FC0000F0F3F80346ECE0FBF7EAFF7861BB68D4
:105A0C00002B02D0FB88002B01D10123E1E0FB68C5
:105A1C0093F85030012B01D10223DAE0FB6801220C
:105A2C0083F85020FB68042283F85120FB68002285
:105A3C005A65FB68BA689A63FB68FA889A87FB68B0
:105A4C00FA88DA87FB6800221A63FB6800229A86C0
:105A5C00FB680022DA86FB6800221A64FB680022CD
:105A6C005A64FB689B68B3F5004F0FD1FB681B6849
:105A7C001A68FB681B6822F040021A60FB681B68FE
:105A8C001A68FB681B6822F480421A60FB681B686A
:105A9C001B6803F04003402B07D0FB681B681A6897
:105AAC00FB681B6842F040021A60FB68DB68002B45
:105ABC0070D135E0FB681B689B6803F00103012B78
:105ACC0015D1FB681B6803F10C02FB689B6B127809
